:100000000C941A040C9442040C9442040C94420480
:100010000C9442040C9442040C9442040C94420448
:100020000C9442040C9442040C9442040C94B614B4
:100030000C9442040C9442040C9442040C94420428
:100040000C946C140C9442040C9442040C944204DE
:100050000C9442040C9442040C9442040C94420408
:100060000C9442040C944204175344001613780075
:10007000161314001510200015201000540A03E177
:1000800081867F3E186D830F0F0E018386603318C3
:100090006DC3198F1803C38E6033186DE330CF180A
:1000A00003C39E603630CDE360CF3006C79E7E3EF0
:1000B00030CDB360CF300CC6F6603330D9B660CFE8
:1000C00033CFCCF66061B0DB1E60CF30D86CE6C0B9
:1000D00061B0DB1E618F19986CC6C063B19B0E3393
:1000E0000F0FB078C6FF7E1F1B061E0F40240000B6
:1000F0000000000000000000000000000000000000
:1001000000000000000000000000000000000000EF
:100110000000000000000000000000000000FE479A
:10012000F20FE1C08FE4FEA7F50FE1C14FEAFE47F1
:10013000F20FE1C08FE4E007703EF9C00E00E00767
:10014000773EF9DFCE00E007773EF9DFCE00E0072B
:10015000773839DFCE00E007773FB9FC0FFEE007C4
:10016000773FB9FC0FFEFFE7773FB9FC0FFEFFE7D3
:100170007703B800000EFFE7773FB9FC0FFE00E7FA
:10018000773FB9FC0FFE00E7773FB9FC0FFE00E7B1
:10019000773839DFCE0000E7773839DFCE0000E767
:1001A000773839DFCE0000E777003801CE00FFE76F
:1001B0007F103881CFFEFFE77F283941CFFEFFE770
:1001C0007F103881CFFE000000000000000000001A
:1001D000000000000000000000000000000000001F
:1001E00000000000F24E00000000000086D1000078
:1001F00000000000E2510000000000001251000069
:10020000000000001251000000000000E24E00500B
:100210006175736500484947482053434F52455321
:1002200000434C41535349432048494748205343D6
:100230004F52455300177361766500166261636B18
:10024000001574797065000A0A0A153A6F6B6179B6
:1002500020163A6564697400596F7520656E74657F
:100260007265640A00536E616B6562697465210092
:1002700057616C6C637261736821000101FF0301B7
:1002800001F70343726564697473005469746C65A3
:1002900073637265656E00446966666963756C7444
:1002A00079004869676873636F726500537461729F
:1002B0007420436C617373696300537461727420BA
:1002C00047616D65007F027B02000000002400276B
:1002D000002A0000000000250028002B00050089EE
:1002E00030080238024978681400000500680138B7
:1002F000010000BA02AC02A20297028B028302053F
:10030000077F4141417F3E5B4F5B3E3E6B4F6B3E03
:10031000183C783C18183C7E3C181C577D571C1C18
:100320005E7F5E1C007E43437E007E73737E007E94
:100330007F7F7E7F4141417F30483A060E06297912
:1003400029067F4141417F60703F02042A1C361C10
:100350002A7F3E1C080000081C3E7F14227F2214C6
:100360003C3C3C7EFF18423C817E3E6375633E3ED2
:10037000616B633E3E636B6B3E04027F02041020A0
:100380007F201008082A1C08081C2A0808143E555B
:100390004122637569756310181C1810040C1C0C3D
:1003A00004000000000000005F00000007000700DC
:1003B000147F147F14042A7F2A10231308646236E2
:1003C000495620500008070300001C22410000414C
:1003D000221C002A1C3E1C2A08083E080800E06077
:1003E00000000808080808006060000060100804A9
:1003F000033E5149453E00427F4000625149494613
:100400002141494D331814127F1027454545393C89
:100410004A494930412111090736494949360649B7
:1004200049291E00002400000080640000081422F6
:100430004100141414141400412214080201590933
:10044000063E415D594E7C1211127C7F4949493666
:100450003E414141227F4141221C7F494949417F20
:10046000090909013E414151327F0808087F0041D6
:100470007F41002041413F017F081422417F4040DD
:1004800040407F020C027F7F0204087F3E414141D1
:100490003E7F090909063E416141BE7F091929468F
:1004A000264949493201017F01013F4040403F1F39
:1004B0002040201F3F4038403F631408146303046A
:1004C0007804036151494543007F4141000304081A
:1004D00010600041417F000402010204808080809E
:1004E00080000307080020545478407F2844443893
:1004F0003844444428384444287F38545454180815
:100500007E09090218A4A49C787F0804047800449A
:100510007D4000006080847D7F1010284400417F72
:1005200040007C047804787C08040478384444440F
:1005300038FC1824241818242418FC7C0804040807
:100540000854545420043F4444203C4040207C1C28
:100550002040201C3C4020403C44281028444C9023
:1005600090907C4464544C44000836410000007F65
:1005700000000041360800180408100C7F4141417A
:100580007FF6E8DBCFC3B8AEA49B928A827B746E01
:1005900068625C57524E4945413E3A3734312E2C01
:1005A00029272523210A0A153A49676E6F726500CB
:1005B0006D560A0A504C45415345205455524E2021
:1005C0004F464620004C4F57204241545445525903
:1005D00021200003053F213F1208120A100A0E1CB9
:1005E0000E0C1E0C141A14161F161E131E1E1B1E94
:1005F0001E1F1E3F213F3A2F3A173D173F213F183C
:100600001F02040A041F0E04040E1F0A1F0A0E0E06
:100610001F04110E2E252E2F2A2E262929021F02F5
:10062000081F08150E04040E150E15151B151B04C6
:100630000604040C040000000017000300031F0A56
:100640001F16371A1904130A153A000300000E1179
:10065000110E000A040A040E040030000404040011
:1006600010001804031F111F121F101D151711155C
:100670001F07041F17151D1F151D01011F1F151F23
:1006800017151F000A00003200040A110A0A0A1195
:100690000A040115020E11171E051E1F150A0E1160
:1006A0000A1F110E1F15111F05010E111D1F041F1A
:1006B000111F1108100F1F041B1F10101F061F1EF3
:1006C000040F0E110E1F09060E112E1F051A12150A
:1006D00009011F011F101F0F180F1F0C1F1B041BE8
:1006E000031C03191513001F11030418111F000226
:1006F00001022020200001020C121E1F120C0C12FD
:10070000120C121F0C1A14041E05242A1E1F021C90
:10071000141D1020201D1F0814111F101E041E1E62
:10072000021C0C120C3E0A040C123E1E040214168B
:100730000A020F120E101E0E100E1E081E120C12B0
:1007400026281E322A26041E21001F00211E040115
:1007500002013F213F172B152010204C4F414445EB
:100760005200172B16201314004E455720484947B6
:100770004853434F52452100594F55522053434F40
:1007800052453A000047414D45204F564552210001
:1007900005003801680100000A4E6F2053442063B1
:1007A000617264206F720A6E6F204C4F4144455253
:1007B0002E4845580A0A153A45786974001D2046A6
:1007C0006C617368696E670A20206C6F6164657282
:1007D0002E2E2E0A0A444F4E2754205455524E2096
:1007E0004F46462100000000002300260029000497
:1007F00004040404040404020202020202030303C8
:1008000003030301020408102040800102040810C1
:10081000200102040810200000000800020100006E
:10082000030407000000000000000045006801000C
:100830000000B31E11241FBECFEFD8E0DEBFCDBF36
:1008400011E0A0E0B1E0E6E5F2E402C005900D920F
:10085000A037B107D9F726E0A0E7B1E001C01D92AB
:10086000A635B207E1F714E0CAE1D4E004C021974D
:10087000FE010E941721C931D107C9F70E94731ADE
:100880000C9429210C940000089580E090E00895D4
:100890008F929F92AF92BF92CF92DF92EF92FF9290
:1008A000CF936BE0C62ED12CE12CF12C74E1872E76
:1008B000912CA12CB12C0E94221FA70196010E940D
:1008C000461FC62F0E94221FA50194010E94461FA9
:1008D0002091C40330E040E0842F042E000C990BDB
:1008E000821793076CF4880F991FFC01E45FFD4F9A
:1008F0008081681303C08181C817E9F24F5FECCF94
:100900006093C703C093C803CF91FF90EF90DF902F
:10091000CF90BF90AF909F908F9008958F929F92AD
:10092000AF92BF92CF92DF92EF92FF920F931F93FD
:10093000CF93DF9381110BC084E791E042EE51E049
:1009400030E020E075E0C72E72E0D72E0AC08BEAB7
:1009500091E04CEE51E031E420E067E0C62E62E029
:10096000D62E7A01C32FD22F4C015E012CE3A20EAA
:10097000B11C00E010E0C8018C0F9D1F0E94301FC9
:10098000F401E00FF11F80830F5F1F4F0A30110544
:1009900091F7CE010A960E94301F082F10E0F70150
:1009A00011830083CE010B960E94301F90E0982F98
:1009B0008827800F911F8F3FFFEF9F0711F480E082
:1009C00090E0F701819391937F01F60191838083F9
:1009D0002C96FBE08F0E911CCA15DB0551F6DF91BA
:1009E000CF911F910F91FF90EF90DF90CF90BF902C
:1009F000AF909F908F9008958F929F92AF92BF92E9
:100A0000CF92DF92EF92FF921092E7058093090256
:100A1000C090E905D090EA05C094D094E12CF12C67
:100A20000E940D144B015C010E940D14A50194015C
:100A3000209530954095509560957095809590954E
:100A40000E94D3209B01AC01C701B6010E94D320B4
:100A50004B015C018091D0059091D1056C01E12C96
:100A6000F12C0E940D14C60ED71EE81EF91EC701F8
:100A7000B601680D791D8A1D9B1D611571058105E3
:100A8000910511F00E94271F8091090240E0882300
:100A900009F452C0842F042E000C990B2091C4033A
:100AA00030E0821793074CF4880F991FFC01E45F34
:100AB000FD4F108211824F5FEDCF88E08093C50318
:100AC0008AE08093C6032091C5033091C60330931A
:100AD0000D0220930C0297E090930E0280930F0278
:100AE00096E0909310028093110225E02093120269
:100AF0008093130294E0909314028093150293E084
:100B0000909316028093170292E0909318028093BC
:100B1000190291E090931A0280931B0210921C021A
:100B200080931D0239E03093C4038093C703209360
:100B3000C8039093730129C0842F042E000C990BD5
:100B40002091C40330E0821793074CF4880F991F5B
:100B5000FC01E45FFD4F108211824F5FEDCF8AE010
:100B60008093C50385E08093C6038091C50390916F
:100B7000C60390930D0280930C0281E08093C4031E
:100B80008FEF809373010E944804109272011092BB
:100B90000B0210920A029091F6018AE0891B809361
:100BA000710110927001FF90EF90DF90CF90BF9095
:100BB000AF909F908F9008954F925F926F927F9227
:100BC0008F929F92AF92BF92CF92DF92EF92FF925D
:100BD0000F931F93CF93DF93882E63ED75E08DE124
:100BE00096E00E94431563ED75E08DE196E00E946A
:100BF0004315882049F0ECEECE2EE1E0DE2EFBEA34
:100C0000EF2EF1E0FF2E08C062EEC62E61E0D62E78
:100C100074E7E72E71E0F72E93E0492E2EE4722E52
:100C200037E2A32EB12C4BEF642E56E0552E0E94D6
:100C3000E20D8823E1F30E94F00C811002C084E1F0
:100C400001C084E08093260640922706882019F090
:100C500061E272E002C065E172E08DE196E00E941F
:100C6000CE0D80912206880F809327068601E7012A
:100C700082E0982E50922606F80180819181892B7E
:100C800031F46DE28DE196E00E940C0D05C0BE01CD
:100C90008DE196E00E94370DF801819191918F01CD
:100CA000209121068031F7E29F0724F0269D202D18
:100CB00011240FC0883E33E0930724F02195220FC2
:100CC000220F07C08436910534F0322F330F230FE3
:100CD0002195225B0CC08A30910534F0A501421B9E
:100CE00051099A01220F03C0572D521B252F209323
:100CF000260620912206929E202D1124209327065D
:100D00000E94950D93942B9687E09812B3CF809113
:100D1000E4058130A1F484EF95E0DF91CF911F913C
:100D20000F91FF90EF90DF90CF90BF90AF909F908A
:100D30008F907F906F905F904F900C943E158091B4
:100D4000E505813041F38091E605813009F06FCFF0
:100D5000E2CF2F923F924F925F926F927F928F924B
:100D60009F92AF92BF92CF92DF92EF92FF920F933A
:100D70001F93CF93DF93CDB7DEB765970FB6F89487
:100D8000DEBF0FBECDBF92E0909308069091F805AC
:100D9000990F909309061092190610921806109256
:100DA000170691E090930B069093FC0110920C06AD
:100DB000882319F080E792E002C085E692E09093E4
:100DC00054068093530685E18093550620910902CD
:100DD00080910A0290910B02222329F020910702B0
:100DE0003091080204C020910502309106022817B4
:100DF00039070CF0FDC10E94051780910902882374
:100E000081F021E42F87188AACEE2A2EA1E03A2E39
:100E1000BBEAAB2EB1E0BB2E87E092E09C878B87CC
:100E20000EC01F86188AE2EE2E2EE1E03E2EF4E779
:100E3000AF2EF1E0BF2EE5E0F2E0FC87EB87450145
:100E4000FCE28F0E911CE0E8F7E7859194918130E8
:100E5000904C89F010922306F50116AAF0E3FE8764
:100E600024E52D8752E0F52EE12C10E06AEF562E96
:100E700070E3472E68C0D40180E090E0FC01E557A4
:100E8000F848E491ED9301968A309105B9F7E2CFE5
:100E90008091E3058F3F09F05BC08091E1058F3FB2
:100EA00009F05BC08091E2058F3F09F05BC0809143
:100EB000E0058F3F09F05BC080E1E8125DC0E12CE6
:100EC00098E0F9125EC0F12C9091220680912106E3
:100ED00080958E9D802D1124895DED85CE2EEE0F9F
:100EE000DD08C80ED11C87FDDA94D7FE03C0FFEFE2
:100EF000CF1ADF0AD594C794C98ACD8684E1891BAD
:100F000090959F9D800D11242E85622F220F770BC7
:100F1000680F711D87FD7A9577FF02C06F5F7F4F65
:100F20003B01759467946A8A6E868091E4058130EE
:100F300009F03FC01A30ACF58E2D90E1F99E800D7E
:100F40001124811123C00E94E20D8823E1F3A0CF78
:100F50008370813009F0A1CF69C18370813009F0BD
:100F6000A1CF68C18370813009F0A1CF67C18370C0
:100F7000813009F0A1CF66C1E7FEA2CF4FE0E42E99
:100F80009FCFF7FEA1CF37E0F32E9ECF8A30D9F264
:100F90008D30C9F2F401E10FF11D17FDFA95808340
:100FA00011821F5F84EF95E00E943E151C300CF00B
:100FB0001BE08091E505813081F4115040E06BEE3B
:100FC00072E084EF95E00E940A1517FD3FC1F4011D
:100FD000E10FF11D17FDFA9510828091E605813031
:100FE00069F436C18091E505813009F035C140E0F2
:100FF0006BEE72E084EF95E00E940A1570E050E01D
:1010000030E0232F270F80912206452F589F400D57
:101010001124EA894E0F80912106632F389F600DBD
:101020001124F9896F0F01E08DE196E03B8B5C8B19
:101030007D8B0E940C163B893F5F5C897D89303136
:1010400001F75F5F705F5830D9F6809121062C2D33
:10105000859D200D1124822F825080932606809139
:1010600022068F5F860D8093270661E472E08DE192
:1010700096E00E94130D809121069C2D859D900D78
:101080001124892F82508093260680912206880F92
:101090008E5F860D809327066BE372E08DE196E00C
:1010A0000E94130D80912106EC2D859DE00D1124E9
:1010B0008E2F8250809326068091220690E0019622
:1010C000982F990F890F860D8093270665E372E0AC
:1010D0008DE196E00E94130D10923D0610923E069F
:1010E000809122064F2DF89E400D11244250460D4E
:1010F000809121066E2DE89E600D112461506C0DCB
:1011000027E08DE196E00E94C015DD24D394D092B3
:101110003D06D0923E063091220640912106E42FF2
:10112000F0E025E0230F4E5FCF01019762E070E011
:101130000E94EF20480F6F2DF39E600D1124635025
:10114000660D8E2DEE9E800D112482508C0D0E9416
:101150004C19809122064EE2481B24E560E08DE1A7
:1011600096E00E94C01510923D0610923E068091B6
:10117000220601E0080F4FE2481B24E560E08DE104
:1011800096E00E94E3151092260680912206F42D27
:10119000F81BF0932706D0923D06D0923E06B4018C
:1011A0008DE196E00E94370D8091400690914106B6
:1011B000A0914206B091430687709927AA27BB27C2
:1011C0000497A105B10508F0BECE1A300CF0BBCED5
:1011D00080912206442D481B60912106169F602DA8
:1011E000112401E02FE58DE196E00E940C16ABCEB4
:1011F0000E9405178091090265960FB6F894DEBF2C
:101200000FBECDBFDF91CF911F910F91FF90EF9057
:10121000DF90CF90BF90AF909F908F907F906F9016
:101220005F904F903F902F900C94DC05F3940E94B8
:10123000E71733CEFA940E94E71734CEE3940E9466
:10124000E71735CEEA940E94E71736CE10E0C5CEF8
:1012500084EF95E00E943E150E94E20D8823E1F3A1
:1012600068E572E08DE196E00E94CE0DB4018DE15B
:1012700096E00E94370D67E472E08DE196E00E94EF
:10128000CE0D8091E405813009F0ACCE84EF95E07D
:101290000E943E1580910A0290910B02F101918704
:1012A00080878101085F1F4F7501F1E2EF0EF11C8D
:1012B0006101F801929082908F01628073808614A0
:1012C0009704F4F4B701CE0101960E942221270170
:1012D000FBE04F0E511CB201C7010E942221BE014A
:1012E0006F5F7F4FC2010E942221F80171826082EC
:1012F00093828282FBE0EF1AF10802151305C9F60A
:10130000F10180859185EB85FC85918380830F8534
:1013100018894801FCE38F0E911CE12CF12CF5019A
:10132000EE0DFF1D6081C701800F911F0E94381FC5
:101330002FEFE21AF20A8AE0E816F10481F7F601CB
:101340006081C8010A960E94381FF6016181F2E0AF
:10135000CF0ED11CC8010B960E94381F045F1F4F8F
:101360002BE0A20EB11C08151905B9F643CF2F9238
:101370003F924F925F926F927F928F929F92AF9225
:10138000BF92CF92DF92EF92FF920F931F93CF9372
:10139000DF93D1E066246A94CFE0CC2EC2E0DC2E4D
:1013A00015E1512E03E6702E0E94E20D8823E1F331
:1013B0008091E605813009F4EDC15091C5035431A7
:1013C000E0F56091C6036B30C0F52091C40330E0B6
:1013D00041E0842F042E000C990B821793077CF4B4
:1013E000880F991FFC01E45FFD4F8081581303C0F3
:1013F0008181681711F04F5FECCF80E01FC08091B2
:1014000070018F5F80937001082E000C990B609122
:101410007101062E000C770B0E94EF2033243394C9
:10142000892B09F0312C0E94F00C8091730190916E
:10143000E10591509E3FB0F41BC081E0DF91CF9158
:101440001F910F91FF90EF90DF90CF90BF90AF90E2
:101450009F908F907F906F905F904F903F902F90D4
:101460000C94A9069091E20591509E3F40F416C05D
:101470009091090291110EC0823061F40DC09091DB
:10148000E30591509E3FA8F490910902911104C088
:10149000811102C080E00AC082E008C09091090278
:1014A000911103C0833009F422C181E0809373015C
:1014B00015C09091E00591509E3F08F411C19091A4
:1014C000E50591509E3F50F4609273018F3F31F0DB
:1014D000D0925406C09253065092550680917301E3
:1014E000332021F1811104C08091C60381500BC0CB
:1014F000813021F48091C5038F5F0DC0823031F4BB
:101500008091C6038F5F8093C603F3C0833071F46C
:101510008091C50381508093C503EBC08091C503C2
:101520009091C60390930D0280930C028090C403A7
:101530005CE0E52E52E0F52E6DE0A62E62E0B62EC0
:1015400000E010E0912C081519050CF057C0D701E8
:10155000CC91CC0FCC0FCE5FF5012080220C220C59
:1015600042E0442E420C23E0442D6C2F8DE196E0A6
:101570000E94C01543E0420D23E06C2F8DE196E000
:101580000E94C01544E0420D23E06C2F8DE196E0EF
:101590000E94C0150115110541F1EFEFE00FF0E0D9
:1015A000EE0FFF1FE45FFD4FD5018C919181891BE8
:1015B000481AD7018C919081891BC81B23E0442DC8
:1015C0006C2F8DE196E00E94C01541E0440D23E0B0
:1015D0006C2F8DE196E00E94C01542E0440D23E09F
:1015E0006C2F8DE196E00E94C0150F5F1F4FB2E097
:1015F000EB0EF11CE2E0AE0EB11CA5CF332091F052
:101600009091C7038091C503981307C09091C803B8
:101610008091C603981709F498C0809172018111D6
:101620000E944804C091C803CC0FCC0F83E0F82E71
:10163000FC0E1091C703110F110F03E0010F94E08E
:10164000E92EEC0E4E2D602F8DE196E00E9468157C
:10165000CE5F4C2F602F8DE196E00E94681524E04C
:10166000B22EB10E4F2D6B2D8DE196E00E946815C4
:101670001E5F4F2D612F8DE196E00E9468154F2D62
:101680006B2D8DE196E00E9468154F2D612F8DE145
:1016900096E00E9468154F2D6B2D8DE196E00E941B
:1016A00068154F2D612F8DE196E00E9468154E2D33
:1016B000602F8DE196E00E9468154E2D602F8DE120
:1016C00096E00E9468154C2F602F8DE196E00E94F5
:1016D00068154C2F602F8DE196E00E94681564CE4E
:1016E00090910902911103C0813009F4DECE83E0AC
:1016F000DDCE80917201882379F08091C403E82FB8
:10170000F0E0EE0FFF1FE45FFD4F108211828F5F4C
:101710008093C403109272012091C40312160CF03E
:10172000FDCE822F022E000C990BDC01AA0FBB1FED
:10173000A45FBD4F880F991FFC01E65FFD4F8081BC
:1017400091818D939C932150E9CF0E944804D093BE
:1017500072012091F60180910A0290910B02820F92
:10176000911D27FD9A9590930B0280930A02709227
:1017700008068091F80580930906109219061092C8
:10178000180610921706D0930B06D093FC01109206
:101790000C0646CFDF91CF911F910F91FF90EF90F4
:1017A000DF90CF90BF90AF909F908F907F906F9081
:1017B0005F904F903F902F900895CF92DF92EF92DD
:1017C000FF920F931F93CF93DF936FEF72E08DE142
:1017D00096E00E94431580913F06882309F4CAC011
:1017E00081E0809325061092240610922306109221
:1017F000E70580933D0680933E06CEE0D2E01CE0F4
:101800000E94E20D8823E1F3FE018491882319F000
:101810000091220601C000E06CE770E080E00E94C9
:10182000F2116CEE70E08CE0800F0E94F2111092C9
:101830002606109327066EE072E08DE196E00E9486
:10184000130D80912106982F990F890F81958D5A3C
:101850008093260680912206982F990F890F8195F3
:10186000835D809327068091400684FF03C068E76C
:1018700070E002C064E770E08DE196E00E94CE0D5A
:1018800080912106982F990F890F81958D5A809309
:101890002606809127068F5F809327068091F905A1
:1018A000882319F060E770E002C06CE670E08DE11B
:1018B00096E00E94CE0D80912106982F990F890FF6
:1018C00081958D5A80932606809127068F5F80939D
:1018D000270668E670E08DE196E00E94CE0D8091CB
:1018E000E5058130A1F48091F9058F5F6091FA05DB
:1018F00087FD09C0082E000C990B70E06F5F7F4FC9
:101900000E94EF20682F6093F9050E94E7178091ED
:10191000E4058130A9F080913F06482F50E060E057
:1019200070E0C0904006D0904106E0904206F090F2
:101930004306C416D506E606F706A0F08F3F91F0E1
:101940008FEF80933F0660E084EF95E00E94F914EA
:101950001092F50584EF95E00E943E1581E080939A
:10196000E70508C08091E605813009F049CF0E9463
:10197000A11846CFDF91CF911F910F91FF90EF906B
:10198000DF90CF900895CF92DF92EF92FF920F9366
:101990001F93CF93DF936C017A018B01C0E0D0E0FD
:1019A000CE15DF0589F0D8016D918D01D601ED913D
:1019B000FC910190F081E02DC6010995892B11F46D
:1019C0007E0102C02196ECCFC701DF91CF911F911C
:1019D0000F91FF90EF90DF90CF9008950E941D210E
:1019E00024E540E060E08DE196E00E94C01524E52A
:1019F0004FE260E08DE196E00E94C01520E340E0F8
:101A000060E08DE196E00E94E21620E340E063E5AD
:101A10008DE196E00C94E216DC01ED91FC910190D1
:101A2000F081E02D0994EF92FF920F931F93CF93D3
:101A3000DF938C017B01C0E0D0E0F701EC0FFD1FCC
:101A40006491662361F0D801ED91FC910190F081E1
:101A5000E02DC8010995892B11F02196EECFCE011A
:101A6000DF91CF911F910F91FF90EF900895611535
:101A7000710579F0FB0101900020E9F73197AF0182
:101A8000461B570BDC01ED91FC910280F381E02DA8
:101A9000099480E090E008954F925F926F927F9258
:101AA000EF92FF920F931F93CF93DF93CDB7DEB7E3
:101AB000A1970FB6F894DEBF0FBECDBF7C01FA012F
:101AC000CB0119A2223008F42AE08E010F5D1F4FCE
:101AD000422E512C612C712CBF01A30192010E9456
:101AE000781FF901CA01015011096A3014F4605DD0
:101AF00001C0695CD8016C93232B242B252B61F743
:101B0000B801C7010E94370DA1960FB6F894DEBF49
:101B10000FBECDBFDF91CF911F910F91FF90EF903E
:101B20007F906F905F904F900895CF92DF92EF92E9
:101B3000FF92CF93DF936C01990FEE08FF08F7FE39
:101B400016C06DE28DE196E00E940C0DEC01442779
:101B50005527BA014C195D096E097F092AE08DE10C
:101B600096E00E944C0D7C01EC0EFD1E08C02AE0A0
:101B7000B701A6018DE196E00E944C0D7C0161E168
:101B800071E08DE196E00E94370D8E0D9F1DDF9173
:101B9000CF91FF90EF90DF90CF9008950F931F9318
:101BA000CF93DF93EC010E94130D8C0161E171E092
:101BB000CE010E94370D800F911FDF91CF911F91B1
:101BC0000F9108954F925F926F927F928F929F92A2
:101BD000AF92BF92CF92DF92EF92FF920F931F933B
:101BE000CF93DF9300D000D01F92CDB7DEB74091E6
:101BF0004F065091500660915106709152062FB7D2
:101C0000F8948091010290910202A0910302B09198
:101C100004022FBF481B590B6A0B7B0B80914E06A9
:101C200090E0A0E0B0E000914A0610914B062091B0
:101C30004C0630914D0684179507A607B70730F478
:101C4000011511052105310509F0EAC2012B022B0E
:101C5000032B09F0E3C28091E60581508E3F08F521
:101C60008091E505813011F58091F9058F5F6091D4
:101C7000FA0587FD09C0082E000C990B70E06F5F14
:101C80007F4F0E94EF20682F6093F90582E697E06E
:101C9000909354068093530688E4809355060E94DF
:101CA000E7178091E60581508E3F70F48091E4053E
:101CB000813009F061C385E597E0909354068093E5
:101CC000530688E48093550680E00E94D0188091E6
:101CD000F505882309F4ADC0809109068111A9C0DA
:101CE0008091010690910206E0910606F0910706A8
:101CF000EE0FFF1FE80FF91F459154914115510553
:101D000001F520910506222331F01092070610926A
:101D10000606FC0114C01092F5058091F405882395
:101D200041F080E00E94D018E0910606F09107068D
:101D30002FC060E084EF95E00E94F9147AC04591CD
:101D400054919A01369527953695279540FF51C0B5
:101D5000CA01B6E096958795BA95E1F78F71952FF0
:101D600096959695969590512F70223071F1F8F4D2
:101D7000211117C08B3008F08AE080930A06E091A9
:101D80000606F09107063196F0930706E0930606E3
:101D9000EE0FFF1F8091010690910206E80FF91FD8
:101DA000CECF213061F760E00E941119E8CF2330D7
:101DB000B1F0243021F72091F805829F802D112465
:101DC0008093110690931206DACF2091F805829F36
:101DD000802D112480930D0690930E06D0CF209174
:101DE000F805829F802D112480930F069093100692
:101DF000C6CF2F73209308068091F805859F802D0C
:101E00001124809309061092190610921806109258
:101E1000170681E080930B068093FC0110920C065C
:101E2000809106069091070601969093070680938D
:101E3000060680910B06882309F4F3C080910906F9
:101E4000811106C060E084EF95E00E94F914E9C0BA
:101E500081508093090680911906811148C0209114
:101E60001706309118062F5F3F4FC901880F991F41
:101E7000E0911306F0911406E80FF91F6591749133
:101E8000862F877080931A06AB0163E056954795BD
:101E90006A95E1F7CA0196958795972F969596953D
:101EA00090931B068F739091F805899F802D1124C4
:101EB00080931906417040930002309318062093D6
:101EC00017068091150690E02817390780F02091B9
:101ED0001606222339F0821B9109909318068093ED
:101EE000170605C060E084EF95E00E94F914809128
:101EF000190681508093190680910C0621E0280F65
:101F000020930C064091080630911B06340F8091F7
:101F10000006380F3093F60560910F06662371F0C6
:101F200070E0822F022E000C990B0E94EF2080910E
:101F30001006869F300D11243093F6058091F6052A
:101F400090E0849664E270E00E94EF208093F605B2
:101F500030910A063093F70560910D06662381F0F3
:101F6000062E000C770B822F022E000C990B0E947C
:101F7000EF2080910E06869F300D11243093F705D7
:101F8000609111066623A1F0822F220F990B70E059
:101F90000E94EF20CB0162E070E00E94EF202091D0
:101FA00012069091F705289F900D11249093F70544
:101FB0008091F7054F3341F08A300CF089E087FDBE
:101FC00080E08093F70502C01092F705F894E09145
:101FD000F605F0E0EF57FA4FE491E093FF013091FE
:101FE000F70520911C0632039001112440911A0636
:101FF0004203C001439F900D11240090F90502C0D7
:10200000880F991F0A94E2F797FF02C081589F4FEB
:10201000880F892F881F990B8093FE018093FD0103
:10202000789480915506882309F456C08C3020F4AA
:102030009CE0E92EE81A01C0E12CFF24F394F09211
:10204000250610923D0610923E06309122061DE2B2
:10205000D12ED31ADE0C03E0030F2EE44D2D63E0E6
:102060008DE196E03D830E94E3153D810CEF030F67
:1020700033E0D30E202F41E06D2D80E50E949D19A5
:10208000202F42E06D2D83E00E949D19F0923D06C5
:10209000F0923E068091220623E0280F612F681BF4
:1020A0006E0D44E580E00E944C1984E08093260682
:1020B00080912206E81A8E2D815D8093270660911B
:1020C0005306709154068DE196E00E94130D8091A5
:1020D00055068150809355068091EB059091EC0553
:1020E000892B09F47DC011E010933D0610923E0645
:1020F0009091210685E5891B80932606109227067C
:102100006091E805613009F44CC030F08091E7053A
:10211000653008F05EC059C060E084EF95E00E9431
:10212000F9141092F5051093250663ED75E08DE125
:1021300096E00E9443151092EC051092EB05109268
:10214000230618EA0E94E20D8823E1F365EC75E0AE
:102150008DE196E00E94130D4091E9055091EA054A
:1021600060E070E02AE08DE196E00E944C0D60EBAB
:1021700075E08DE196E00E94130D612F62956F70FE
:1021800070E08DE196E00E94001A65EA75E08DE14D
:1021900096E00E94130D8091E405813009F0F2C0B1
:1021A0001FC08091400690914106A0914206B091D7
:1021B00043068F709927AA27BB270897A105B10569
:1021C00010F467E009C068E707C0882349F06B5F37
:1021D00003C0882329F06FE28DE196E00E940C0D88
:1021E0000E94611880912306811104C08DE196E060
:1021F0000E9457150E940D1460934A0670934B0677
:1022000080934C0690934D062091460630914706E8
:10221000621B730B709345066093440680E0CCC04C
:102220002FB7F8948091010290910202A0910302CD
:10223000B09104022FBF20914E06820F911DA11D67
:10224000B11D80934F0690935006A0935106B09312
:1022500052068091400690914106A0914206B091AD
:1022600043060196A11DB11D80934006909341063F
:10227000A0934206B093430610924A0610924B0672
:1022800010924C0610924D060E940D146093460663
:102290007093470680934806909349068091D00535
:1022A0009091D1052FE0289F8001299F100D1124C6
:1022B00085E10E94F613800F911F24E09695879583
:1022C0002A95E1F79093D1058093D0052091CF0511
:1022D000222309F44BC06091D305262F30E040E063
:1022E00050E029833A834B835C83C090D405D12C82
:1022F000E12CF12C4091D7055091D8054A01A12C31
:10230000B12C2091D5053091D6052901612C712C75
:102310008217930728F09C014817590708F49A017F
:10232000C901A0E0B0E09C01AD01241935094609BE
:10233000570969817A818B819C816C197D098E098D
:102340009F090E94D320A50194012419350946094B
:1023500057090E94461FC20ED31EE41EF51EC092EE
:10236000D2056C2D70E085E00E9497130E94EE1755
:102370000E94361A81E020C0893209F0A5CC0E9463
:10238000A118A2CC115009F0DDCE60E070E085E02C
:102390000E94971383B7817F846083BF83B7816076
:1023A00083BF83B7816083BF889583B78E7F83BFE8
:1023B00083B78E7F83BFC6CE0F900F900F900F9084
:1023C0000F90DF91CF911F910F91FF90EF90DF90D1
:1023D000CF90BF90AF909F908F907F906F905F90C5
:1023E0004F9008958F929F92AF92BF92CF92DF92BB
:1023F000EF92FF920F931F93CF93DF93FB012491F2
:102400003196C490F0903D06022E000C330B12164C
:1024100013060CF0D7C080330CF0D4C0482F082E20
:10242000000C550BFA01EC0DF11DC7FCFA951E16B8
:102430001F060CF0C7C06E5F7F4FD901179693E05F
:10244000B595A7959A95E1F787FF0BC0C80EA49F95
:10245000C001A59F900DB49F900D1124681B790BAE
:1024600080E04C2D0C2C000C550B480F511D87FDA6
:102470005A95413351051CF090E3C92EC81A2535F1
:10248000310514F024E530E0109129061827982F23
:10249000977031E001C0330F9A95EAF785958595DD
:1024A0008595F4E58F02C001112481539C4F00E013
:1024B0000C2C000CDD08BB24B394402F50E04C15CD
:1024C0005D050CF07FC0FB01E490F1E0FF1218C045
:1024D000FB01EC0140E8542F5E2119F05881532B89
:1024E000588350E0559547954115510519F431969B
:1024F000E49040E821965C2F581B521760F359C0B6
:10250000F1101AC0A32EA094FB01EC0140E8542F57
:102510005E2119F058815A21588350E0559547950E
:102520004115510519F43196E49040E821965C2F4D
:10253000581B521760F33DC043E0F41223C0932EA2
:102540009094FB01EC0140E8A82E8C2E881A542FA1
:102550005E2141F08126588180FE02C0532B01C0CC
:102560005921588350E0559547954115510519F467
:102570003196E49040E821965C2F5A19521728F3BF
:102580001B2517C0FB01EC0140E8542F5E2119F018
:1025900058815327588350E055954795411551056B
:1025A00019F43196E49040E821965C2F581B52179D
:1025B00060F3330F19F48C5A9F4F31E00F5F6A0FAD
:1025C0007B1F7BCFDF91CF911F910F91FF90EF90F9
:1025D000DF90CF90BF90AF909F908F900895CF9352
:1025E000DF93BC018DE196E00E94370DEC0161E1C3
:1025F00071E08DE196E00E94370D8C0F9D1FDF91F9
:10260000CF910895833081F028F4813099F08230A1
:10261000A1F008958730A9F08830B9F08430D1F462
:10262000809180008F7D03C0809180008F778093A0
:102630008000089584B58F7702C084B58F7D84BDF6
:1026400008958091B0008F7703C08091B0008F7D96
:102650008093B00008951F93CF93DF93282F30E02D
:10266000F901E95EF74F8491F901ED5FF74FD491DD
:10267000F901E151F84FC491CC23C9F0162F811113
:102680000E940213EC2FF0E0EE0FFF1FED52FD4F02
:10269000A591B4918FB7F894111105C09C91ED2FBD
:1026A000E095E92302C0EC91ED2BEC938FBFDF9115
:1026B000CF911F910895CF93DF9390E0FC01ED5FE0
:1026C000F74F2491FC01E151F84F8491882361F187
:1026D00090E0880F991FFC01E753FD4FC591D491FD
:1026E000FC01ED52FD4FA591B491611109C09FB756
:1026F000F8948881209582238883EC912E230BC047
:10270000623061F49FB7F8943881822F80958323DB
:102710008883EC912E2B2C939FBF06C08FB7F89423
:10272000E8812E2B28838FBFDF91CF9108951F93CF
:10273000CF93DF93182FEB0161E00E945B1320978A
:1027400011F460E004C0CF3FD10539F461E0812F7E
:10275000DF91CF911F910C942B13E12FF0E0E95EF4
:10276000F74FE491E330F9F048F4E130B9F0E230AA
:10277000A1F584B5806284BDC8BD34C0E730E9F0FE
:10278000E83019F1E43049F580918000806280934F
:102790008000D0938B00C0938A0024C084B58068E9
:1027A00084BDC7BD1FC08091800080688093800079
:1027B000D0938900C093880015C08091B0008068D4
:1027C0008093B000C093B3000DC08091B0008062D0
:1027D0008093B000C093B40005C0C038D1050CF0A0
:1027E000B5CFAFCFDF91CF911F9108958E3008F014
:1027F0008E508770806480937C0080917A00806422
:1028000080937A0080917A0086FDFCCF80917800D9
:102810002091790090E0922B08953FB7F894809131
:10282000CB039091CC03A091CD03B091CE0326B5FC
:10283000A89B05C02F3F19F00196A11DB11D3FBFF8
:10284000BA2FA92F982F8827820F911DA11DB11D86
:10285000BC01CD0142E0660F771F881F991F4A9582
:10286000D1F708958F929F92AF92BF92CF92DF924D
:10287000EF92FF926B017C010E940D144B015C01F1
:10288000C114D104E104F104F1F00E940D14DC0143
:10289000CB0188199909AA09BB09883E9340A10573
:1028A000B10570F321E0C21AD108E108F10888EE01
:1028B000880E83E0981EA11CB11CC114D104E10450
:1028C000F10419F7DDCFFF90EF90DF90CF90BF902C
:1028D000AF909F908F9008951F920F920FB60F9216
:1028E00011242F933F938F939F93AF93BF93809126
:1028F000010290910202A0910302B0910402309172
:10290000CA0323E0230F2D3720F40196A11DB11D2A
:1029100005C026E8230F0296A11DB11D2093CA030E
:102920008093010290930202A0930302B0930402E9
:102930008091CB039091CC03A091CD03B091CE03B5
:102940000196A11DB11D8093CB039093CC03A0935E
:10295000CD03B093CE03BF91AF919F918F913F91E3
:102960002F910F900FBE0F901F9018951F920F92EE
:102970000FB60F9211242F936F937F938F939F9392
:102980006091FE01662359F18091C9038F5F8093A6
:10299000C9039091FF01891710F12091FC0181E09A
:1029A00028272093FC011092C903809100028823FC
:1029B00069F08091000193E4899F802D1124895B47
:1029C000809300010E94E3209093FD01222329F0CF
:1029D0008091FD018093B40002C080E0FBCF9F9105
:1029E0008F917F916F912F910F900FBE0F901F903D
:1029F0001895FC0161110DC0178A158A14A213A243
:102A0000108E1092FD011092FE011092FC011092A6
:102A1000B4000895EF92FF920F931F93CF93DF932B
:102A20001F92CDB7DEB77C018B01411105C060E07C
:102A300049830E94F914498150E0FA01EE0FFF1F0B
:102A4000EE0DFF1D16870587DA011996AA0FBB1F29
:102A5000AE0DBF1D1D921C92F701E40FF51F81E022
:102A6000818389E0868B118E138E158E0F90DF91F6
:102A7000CF911F910F91FF90EF90089540E060E992
:102A800077E00C940A15DC01FB0184918F5F1496AA
:102A90008C9314973196E491EF5F1596EC9315970C
:102AA0006E5F7F4F5F967C936E935E97089528EFDD
:102AB00031E0EFECF3E0DF01A9011D9241505040FD
:102AC000E1F7DC0119961C9219971A961C92089549
:102AD000FC01643508F053C0403308F050C090A1A9
:102AE000742F759575957595262F062E000C330B52
:102AF000542F57709230A1F4F901E153FC4F84E553
:102B00007802E00DF11D1124808190E0052E02C0B5
:102B1000959587950A94E2F78095982F91700AC051
:102B2000933041F484858170462740954170841329
:102B300003C014C0911112C084E57802200D311D2C
:102B40001124F901E153FC4F81E090E001C0880FAE
:102B50005A95EAF780959081892310C084E5780220
:102B6000200D311D1124F901E153FC4F81E090E06B
:102B700001C0880F5A95EAF79081892B80830895C8
:102B8000DF92EF92FF920F931F93CF93DF931F92E9
:102B9000CDB7DEB78C01D62EF42EE12CE21654F41C
:102BA0006E2D6D0D4F2DC80129830E946815E39489
:102BB0002981F4CF0F90DF91CF911F910F91FF905A
:102BC000EF90DF900895DF92EF92FF920F931F93A3
:102BD000CF93DF937C01D62FD22EC42F002E000C72
:102BE000110B040F111D47FD1A954C2F0C2E000CD4
:102BF000550B4017510744F42D2D4C2F6D2FC70155
:102C00000E94C015CF5FF1CFDF91CF911F910F913F
:102C1000FF90EF90DF9008956F927F928F929F9236
:102C2000AF92BF92CF92DF92EF92FF920F931F93DA
:102C3000CF93DF93EC0188A064350CF080C0403363
:102C40000CF07DC0EC81F0E031970E9FC0010F9F2A
:102C5000900D1124860F911D67FD9A95181619067F
:102C60000CF06DC0ED81E09FF0011124E40FF11D27
:102C700047FDFA951E161F060CF061C0102FE42EBA
:102C8000F62E962EB62EC22ED12CEB2DEF190E2E2F
:102C9000000CFF0B8C8190E0E817F9070CF04EC098
:102CA0000197E817F90779F0C89E9001C99E300D89
:102CB000D89E300D1124E20FF31F8E8D9F8DE80FEB
:102CC000F91F749001C0712C6E2CAE2C2A2D2E1978
:102CD000022E000C330B8D8190E0281739075CF52C
:102CE00070FE10C0113031F44A2D6B2DCE010E94C0
:102CF00068151DC0012F212F462D692DCE010E9480
:102D0000E31515C089A198A1891789F088A311300E
:102D100031F44A2D6B2DCE010E94681507C0012F9A
:102D2000212F462D692DCE010E94E31588A27694AD
:102D3000A394610ECBCFB394910EA7CF88A2DF915D
:102D4000CF911F910F91FF90EF90DF90CF90BF90A8
:102D5000AF909F908F907F906F9008950F93CF9337
:102D6000DF93EC016A3019F42D8198851FC06D3016
:102D700019F1262F08854A8569850E940C16288539
:102D80003C818985329F800D112489879F819923F9
:102D900099F0082E000C990B44E550E0239F401950
:102DA00051091124481759073CF49D818A85299FB0
:102DB000800D11248A87198681E090E0DF91CF9100
:102DC0000F910895DF92EF92FF920F931F93CF938D
:102DD000DF931F92CDB7DEB78C01D62EF42EE12CF7
:102DE000E21654F44E2D4F0D6D2DC80129830E941B
:102DF0006815E3942981F4CF0F90DF91CF911F9153
:102E00000F91FF90EF90DF9008950F931F93CF9352
:102E1000DF938DE196E00E9457156FEF72E08DE130
:102E200096E00E944315C3E0DEE01CE00EE10E9444
:102E3000E20D8823E1F3C0932706D093260665E8C8
:102E400077E08DE196E00E94CE0D64E877E08DE1B9
:102E500096E00E94CE0D1093260668E777E08DE19C
:102E600096E00E94CE0D0093260680910A02909172
:102E70000B020E94950D1092260620910902809166
:102E80000A0290910B02222329F02091070230912F
:102E9000080204C020910502309106022817390764
:102EA00034F469E677E08DE196E00E94CE0D8091E2
:102EB000E405813049F08091E505813029F0809169
:102EC000E605813009F0B3CFDF91CF911F910F91CB
:102ED0000895AF92BF92CF92DF92EF92FF920F933D
:102EE0001F93CF93DF93182F062FC1E0D3E08AEF13
:102EF000D82E9EEFE92E842F8470C82E842F8270E6
:102F0000B82E842F8870A82E4170F42E8C2F880F35
:102F10008F5FE80ECC2081F04D2F400F6C2F610F9A
:102F20008DE196E00E9468154C2F400F6D2F610FC8
:102F30008DE196E00E946815BB2081F0402F4D1B6B
:102F40006C2F610F8DE196E00E946815402F4C1B9D
:102F50006D2F610F8DE196E00E946815AA2081F027
:102F60004C2F400F612F6D1B8DE196E00E9468157C
:102F70004D2F400F612F6C1B8DE196E00E9468156C
:102F8000FF2081F0402F4C1B612F6D1B8DE196E0DF
:102F90000E946815402F4D1B612F6C1B8DE196E040
:102FA0000E946815CD1744F4E7FC04C0D150D394B7
:102FB000D394ED0CCF5FAACFDF91CF911F910F91EA
:102FC000FF90EF90DF90CF90BF90AF90089540E0DA
:102FD0006BE278E084EF95E00C940A15CF92DF92D3
:102FE000EF92FF920F931F93CF93DF93C9EDD5E03C
:102FF00000EE15E0FF24FA9497E0E92EE00E62E07F
:1030000088810E945B13288130E0F901E95EF74F67
:103010008491F901ED5FF74FC490F901E151F84F48
:10302000D490DD2071F081110E940213ED2DF0E0AB
:10303000EE0FFF1FEB51F84FA591B491EC91EC21ED
:10304000B1F4F80180818F5F808360E088810E9405
:103050005B1321960F5F1F4FE012D1CFDF91CF910D
:103060001F910F91FF90EF90DF90CF900895F8019E
:103070008081882371F3F8018F3F11F41082E5CF2E
:10308000F082E3CFCF93C82FF89460E080912C06B4
:103090000E942B1380912D0618161CF460E00E94EC
:1030A0002B13CEBD00000DB407FEFDCF8EB5809171
:1030B0002D0618161CF461E00E942B137894CF9112
:1030C00008950F931F93CF93809129068F5F80936C
:1030D00029060FEC13E0C0E08C2F80640E94421898
:1030E00080E80E94421861E080912C060E942B1318
:1030F00080912D0618161CF460E00E942B1380E0CE
:1031000090E0F801E80FF91F20812EBD00000DB4FA
:1031100007FEFDCF2EB501968435910591F780917C
:103120002D0618161CF461E00E942B13CF5F0C5A79
:103130001F4FC63089F680E4CF911F910F910C94F8
:1031400042188DE196E00E9457156DEB77E08DE116
:1031500096E00E94130D0E9461188CB583608CBDAF
:103160008DB58E7F8DBD89E691E0EEEFFFE3099589
:103170001092230668E977E08DE196E00E94CE0D7B
:103180000E9461180E94EE178091E405813039F0A9
:1031900062E370E080E090E00E943214F3CF089583
:1031A000CF93DF93482F50E0EA01C153DA4F9DA13E
:1031B0009923A1F19EA1911131C09EA5FA01EE0FB4
:1031C000FF1FEA52FA4F35A126A1E32FF22FE90F94
:1031D000F11DE90FF11D259134912F3F9FEF390724
:1031E00011F41DA21BC039AB440F551FFA01E75261
:1031F000FA4F3327220F331F05A0F6A1E02DE20F6F
:10320000F31F65917491811105C040E084EF95E052
:103210000E940A1529968DA18F5F8DA3DF91CF9112
:10322000089570E0DB01AA0FBB1FA153BA4FD496DB
:103230002C91D497D5969C91D597E22FF92FE80F32
:10324000F11DE80FF11D259134915F9696963C9300
:103250002E939597F901859194919091F805989FF7
:10326000802D112461537A4FFB01B19685A3F9019A
:10327000A591B4914B2F50E0E82FF0E04E175F0777
:1032800020F4F90125913491832FFB01B296899F97
:10329000802D112485A30895DF92EF92FF920F9362
:1032A0001F93CF93DF93C82FD62FE42E022F8AEFE0
:1032B000D82ED40E93E0F92EFC0E2D2D462F6F2D17
:1032C0008DE196E00E94C0151D2F100F4FEF410FAA
:1032D0002D2D6F2D8DE196E00E94C0150650DD5F0B
:1032E000202F4D2F6C2F8DE196E00E94E216CE0D1F
:1032F0006FEF6C0F202F4D2F8DE196E00E94E216AC
:1033000041E06D2F8F2D0E946917C45042E06D2F50
:103310008C2F0E946917145044E0612F8C2F0E945B
:10332000691748E0612F8F2DDF91CF911F910F9189
:10333000FF90EF90DF900C9469179F92AF92BF922D
:10334000CF92DF92EF92FF920F931F93CF93DF9371
:10335000F82EE62EB22E03E0020FD0E0C3E08AEF93
:10336000C82E1EEF842F8170982EAA24A394A20E3B
:103370004270D42EDF5F802F8B19180F9920A1F097
:103380002C2F220F2A0D4E2D4C1B6D2F6F0D8DE112
:1033900096E00E94E216202F4E2D4D1B6C2F6F0DD4
:1033A0008DE196E00E94E216DD20A1F02C2F220F85
:1033B0002A0D4E2D4C1B6F2D6D1B8DE196E00E944A
:1033C000E216202F4E2D4D1B6F2D6C1B8DE196E0CC
:1033D0000E94E216DC1744F417FD04C0C150C394E8
:1033E000C3941C0D0E5FC6CFDF91CF911F910F913B
:1033F000FF90EF90DF90CF90BF90AF909F90089597
:10340000CF92DF92EF92FF920F931F93CF93DF93B0
:103410006B01770FEE08FF08F7FE1BC0EC016DE2B1
:103420000E940C0D8C0144275527BA014C195D09E7
:103430006E097F092AE0CE010E944C0D800F911F7A
:10344000DF91CF911F910F91FF90EF90DF90CF9080
:1034500008952AE0B701A601DF91CF911F910F9146
:10346000FF90EF90DF90CF900C944C0D8091EB0586
:103470009091EC05892BB1F18091F3058F7169F57D
:1034800084E10E94F613BC01990F880B990B0E94EE
:10349000DA1F26EE3FE34EEC50E40E943E200E94ED
:1034A000A91F9B017093EA056093E905672B91F0D2
:1034B00084E08093E805EBEEF5E080E041915191E6
:1034C0002417350718F48093E80508958F5F84303A
:1034D000A9F703C08FEF8093E8058091F3058F5F14
:1034E0008093F3050895789484B5826084BD84B593
:1034F000816084BD85B5826085BD85B5816085BDEF
:1035000080916E00816080936E00109281008091A6
:10351000810082608093810080918100816080932E
:103520008100809180008160809380008091B10053
:1035300084608093B1008091B00081608093B0007E
:1035400080917A00846080937A0080917A00826012
:1035500080937A0080917A00816080937A008091D4
:103560007A00806880937A001092C10082E3809391
:103570004E0681E090E0A0E0B0E080934A06909390
:103580004B06A0934C06B0934D068FEF80933F06F9
:10359000E0E8F7E7259134912130304C09F049C03B
:1035A000E6E9F7E7E491E0932806E7E9F7E7E49135
:1035B000E093D305E8E9F7E7E491E093D405E9E97E
:1035C000F7E7859194919093D6058093D505EBE923
:1035D000F7E7859194919093D8058093D70587E07C
:1035E0008093FA05EEE9F7E7E491E093F905EFE956
:1035F000F7E7E491E0933F06E0EAF7E785919491DD
:103600009093EC058093EB05E2EAF7E785919491BE
:103610009093EE058093ED05E4EAF7E785919491A8
:103620009093F0058093EF05E6EAF7E78591949192
:103630002CC09CE3909328061092D3058093D40568
:1036400080E293E09093D6058093D50584ED93E0D6
:103650009093D8058093D70587E08093FA058093EF
:10366000F9058CEA9DE09093EC058093EB058EEDD7
:103670009DE09093EE058093ED0584E79EE09093A6
:10368000F0058093EF058CE39FE09093F205809323
:10369000F105C1E0C093CF056FEF70E085E00E94B7
:1036A000971388E08093D90589E08093DA0587E055
:1036B0008093DB0586E08093DC05D4E0D093DD05C4
:1036C00082E08093DE0581E18093DF050E94EE17A2
:1036D0008CE39FE09093EA058093E905D093E80599
:1036E000C093F3058BE080932B068DE080932A0630
:1036F00080E180932C068EE080932E068FE08093ED
:103700002D06C0932506C0933D0610923E06C09339
:10371000240663ED75E08DE196E00E944315CFB776
:10372000F8948091F701811127C0E9EFF7E08491C7
:10373000EDE0F8E09491E82FF0E0EE0FFF1FE75383
:10374000FD4FA591B491EC91E92321F461E08AE069
:103750000E942B1361E08AE00E945B138CB58061AC
:103760008CBD8CB580648CBD61E08DE00E945B13E4
:1037700061E08BE00E945B138091F7018F5F809383
:10378000F701CFBF8CB58F7D8CBD8CB58C7F8160F0
:103790008CBD8DB581608DBD8CB58C608CBD61E0BC
:1037A00080912B060E945B1361E080912A060E94A3
:1037B0005B1361E080912C060E945B1380912E06C2
:1037C00018161CF461E00E945B1380912D061816F8
:1037D0001CF461E00E945B1380912E06181674F4AD
:1037E00060E00E942B136AE070E080E090E00E94AD
:1037F000321461E080912E060E942B1380912A06DC
:10380000082E000C990BFC01E151F84FE491F0E017
:10381000EE0FFF1FED52FD4F25913491309332068C
:1038200020933106FC01ED5FF74FE491E0933806F9
:1038300080912B06082E000C990BFC01E151F84FEA
:10384000E491F0E0EE0FFF1FED52FD4F2591349112
:103850003093300620932F06FC01ED5FF74FE49183
:10386000E093370680912D06082E000C990BFC0181
:10387000E151F84FE491F0E0EE0FFF1FED52FD4FE4
:10388000259134913093340620933306FC01ED5F8B
:10389000F74FE491E093390680912C06082E000C36
:1038A000990BFC01E151F84FE491F0E0EE0FFF1F9E
:1038B000ED52FD4F25913491309336062093350615
:1038C000FC01ED5FF74FE491E0933A0681E20E943C
:1038D000421884E10E9442188091280687FF03C0A5
:1038E0008FE7809328068091280680680E944218FE
:1038F00080E20E9442188CE00E9442180E946118E7
:1039000081E08093F80584E080931C0685EC92E0CA
:10391000909304068093030660E080E00E941119F2
:1039200061E070E083E00E9497138091B100887F8E
:1039300081608093B100F894109280001092810011
:10394000109285001092840088E191E090938900A4
:1039500080938800809181008860809381008091AD
:10396000810081608093810080916F0082608093EC
:103970006F0078940E94361A8091E505813019F421
:103980001092F9050BC08091E8058823C9F340E047
:103990006DED72E084EF95E00E940A1581E080935E
:1039A000F6011092E7050E94DD0B80E00E948E0474
:1039B00081E00E948E041092FB011092FA01109295
:1039C000F9011092F8012DE2322E30E0832E30E022
:1039D000932E0E94E20D8823D9F16FEF72E08DE102
:1039E00096E00E94431510922306DD24DA94412CC0
:1039F000C0E090E3292ED0E0CC24C3940E94E20DD5
:103A00008823E1F32091E405022D220C110B2130D3
:103A100009F47FC18091E505813009F47AC1809174
:103A2000E605813009F488C14420C9F0C8018C1B27
:103A30009109C7FD939502978CF58D2D0D2C000CE7
:103A4000990BD1108BC080E00E94FC040E94B70942
:103A50008114910409F4BDCF0E940000BACF809177
:103A6000E3058F3F21F08370813009F4DAC0809143
:103A7000E1058F3F21F08370813009F4D6C0D63044
:103A800021F0D7FF03C0D5E001C0D0E0809122062D
:103A9000C4E0C80F8D9FC019112402C04424439470
:103AA0000C0F111DC7FD1A9517FF02C00F5F1F4FA6
:103AB0007801F594E7945E2C2E2C10922606E09265
:103AC0002706C09225061092240603EF12E0A12CCF
:103AD000B12C6D2E0D2E000C7708A614B70459F4E6
:103AE00083E08093260680912206952DD89F900D25
:103AF000112490932706F801659174918DE196E069
:103B00000E94CE0D8FEFA81AB80A0E5F1F4F96E0E5
:103B1000A916B10411F710923D0610923E0680914D
:103B200022064E2DD89F400D1124415024E560E01F
:103B30008DE196E00E94C015C0923D06C0923E06FF
:103B40008091220623E0280F6E2DD89F600D11244E
:103B5000625044E580E00E944C1950CF81309105BD
:103B600011F481E071CF8230910539F481E00E9437
:103B7000DC0580E00E94DC056BCF0397A1F48DE1AA
:103B800096E00E9457156FEF72E08DE196E00E947B
:103B900043150E94E20D8823E1F38091E605813010
:103BA00009F047C055CF95E0D91619F00E94DD0BFA
:103BB0004FCF8DE196E00E9457156FEF72E08DE1D7
:103BC00096E00E9443150E94E20D8823E1F36FEF17
:103BD00072E08DE196E00E94431581E291E00E943F
:103BE000EF128DE291E00E94EF128BE391E00E94D0
:103BF000EF1288E491E00E94EF1263ED75E08DE131
:103C000096E00E94431586E591E00E94EF128091B4
:103C1000E405813009F072C084EF95E00E943E1502
:103C200017CFDF5F0E94E71722CFD1500E94E7171E
:103C300026CF8091E405813009F40ACF8091F60106
:103C4000823064F09091E0059F3F11F090FD87C0B5
:103C50009091E3059F3F11F090FD81C08091F601A6
:103C600089307CF49091E2059F3F11F090FD06C0F1
:103C70009091E1059F3F29F090FF03C08F5F8093F3
:103C8000F60164E171E08DE196E00E94370D6091EC
:103C9000F601062E000C770B8DE196E00E94001ACB
:103CA000C5E0E12CF12CD8E0132D1C1B21E02C0FDA
:103CB000412F65E06D0F8DE196E00E94E21626E04F
:103CC0004EE26D2F8DE196E00E94C0158091F601C5
:103CD000082E000C990BE816F90644F40C2F24E08A
:103CE000412F6D2F8DE196E00E94E315D85F8FEF95
:103CF000E81AF80ACC5FC932B9F64BCF8091E505D6
:103D0000813009F489CF8091E605813009F05BCFDD
:103D100083CF8091220690E0919581959109C82FDB
:103D2000CC0FC80FCC0FC250213089F484EF95E03E
:103D30000E943E15DD2E7ACE8091220690E091956C
:103D400081959109C82FCC0FC80FCC0FC25040E00D
:103D50006BEE72E084EF95E00E940A1567CE815009
:103D60008093F6017BCF1092200610921F0689E007
:103D700091E090931E0680931D061092C703109247
:103D8000C8031092C5031092C60380E090E0FC01C6
:103D9000E45FFD4F108211820296883B21E092077A
:103DA000B1F71092C40308958F929F92AF92BF9281
:103DB000CF92DF92EF92FF92CF93DF93EC01688175
:103DC00079818A819B81611571058105910521F4B5
:103DD00064E279ED8BE597E02DE133EF41E050E0CF
:103DE0000E94461F49015A019B01AC01A7EAB1E4B8
:103DF0000E94651F6B017C01ACEEB4EFA50194013C
:103E00000E94731FDC01CB018C0D9D1DAE1DBF1DDB
:103E1000B7FF03C00197A109B04888839983AA839B
:103E2000BB83BC01CD019F77DF91CF91FF90EF90D5
:103E3000DF90CF90BF90AF909F908F9008950E9499
:103E4000D41E089581E091E00E94D41E08956093ED
:103E5000010170930201809303019093040108957E
:103E6000F999FECF92BD81BDF89A992780B5089542
:103E7000262FF999FECF1FBA92BD81BD20BD0FB686
:103E8000F894FA9AF99A0FBE01960895052E97FBB9
:103E90001EF400940E945D1F57FD07D00E94781FFA
:103EA00007FC03D04EF40C945D1F5095409530955F
:103EB00021953F4F4F4F5F4F089590958095709596
:103EC00061957F4F8F4F9F4F08950E949A1FA59F26
:103ED000900DB49F900DA49F800D911D1124089505
:103EE000B7FF0C94651F0E94651F821B930B0895FA
:103EF000A1E21A2EAA1BBB1BFD010DC0AA1FBB1FEE
:103F0000EE1FFF1FA217B307E407F50720F0A21B5F
:103F1000B30BE40BF50B661F771F881F991F1A94CC
:103F200069F760957095809590959B01AC01BD01F6
:103F3000CF010895A29FB001B39FC001A39F700D50
:103F4000811D1124911DB29F700D811D1124911DA1
:103F500008950E941D2088F09F5798F0B92F992747
:103F6000B751B0F0E1F0660F771F881F991F1AF064
:103F7000BA95C9F714C0B13091F00E943720B1E072
:103F800008950C943720672F782F8827B85F39F071
:103F9000B93FCCF3869577956795B395D9F73EF4FD
:103FA00090958095709561957F4F8F4F9F4F0895A5
:103FB000E89409C097FB3EF49095809570956195C3
:103FC0007F4F8F4F9F4F9923A9F0F92F96E9BB2779
:103FD0009395F695879577956795B795F111F8CFF5
:103FE000FAF4BB0F11F460FF1BC06F5F7F4F8F4F60
:103FF0009F4F16C0882311F096E911C0772321F056
:104000009EE8872F762F05C0662371F096E8862FED
:1040100070E060E02AF09A95660F771F881FDAF744
:10402000880F9695879597F9089557FD9058440FF6
:10403000551F59F05F3F71F04795880F97FB991F07
:1040400061F09F3F79F087950895121613061406C4
:10405000551FF2CF4695F1DF08C016161706180651
:10406000991FF1CF86957105610508940895E8942C
:10407000BB2766277727CB0197F908950E94512027
:104080000C94C2200E94B42038F00E94BB2020F083
:10409000952311F00C94AB200C94B12011240C94B6
:1040A00038200E94152070F3959FC1F3950F50E0C2
:1040B000551F629FF001729FBB27F00DB11D639FDA
:1040C000AA27F00DB11DAA1F649F6627B00DA11D80
:1040D000661F829F2227B00DA11D621F739FB00D26
:1040E000A11D621F839FA00D611D221F749F332796
:1040F000A00D611D231F849F600D211D822F762F2F
:104100006A2F11249F5750409AF0F1F088234AF00B
:10411000EE0FFF1FBB1F661F771F881F9150504077
:10412000A9F79E3F510580F00C94AB200C943820E9
:104130005F3FE4F3983ED4F3869577956795B795FE
:10414000F795E7959F5FC1F7FE2B880F911D969518
:10415000879597F9089597F99F6780E870E060E088
:1041600008959FEF80EC089500240A941616170610
:1041700018060906089500240A9412161306140658
:1041800005060895092E0394000C11F4882352F0BB
:10419000BB0F40F4BF2B11F460FF04C06F5F7F4F73
:1041A0008F4F9F4F0895DB018F939F930E94651F50
:1041B000BF91AF91A29F800D911DA39F900DB29FC3
:1041C000900D11240895991B79E004C0991F96174A
:1041D00008F0961B881F7A95C9F78095089597FB7C
:1041E000072E16F4009407D077FD09D00E94032112
:1041F00007FC05D03EF4909581959F4F08957095EA
:1042000061957F4F0895AA1BBB1B51E107C0AA1FF0
:10421000BB1FA617B70710F0A61BB70B881F991F67
:104220005A95A9F780959095BC01CD010895EE0FA0
:10423000FF1F0590F491E02D099481E090E0F8943F
:104240000C942921FB01DC0101900D920020E1F783
:064250000895F894FFCF71
:10425600010100000000000000AE16C30C45044436
:10426600040D0A00446966666963756C74793A20C0
:104276000043432D42592D53412D4E4300323031D8
:104286003820636F64652062793A004C6164792056
:10429600417765736F6D65004D616B65725371751E
:1042A600697272656C004869676853636F7265204E
:1042B600627920526F646F74004C4F41444552003E
:00000001FF
